:02000000EC28EA
:0E000600213083120313FD00FD0B07280800B4
:100014000F3083120313FC004730FD00FD0B102842
:0A002400FC0B10280000000008008B
:06002E00000000000800C4
:1000340083120313B31B2028861121288615331B32
:100044002528061126280615B31A2A2886102B28D7
:100054008614331A2F280610302806142018342842
:10006400061635280612861617208612B3193C2860
:1000740086113D2886153319412806114228061594
:10008400B318462886104728861433184B280610C0
:100094004C280614201850280616512806128616D5
:1000A40017208612201C58280A20592803200800EB
:1000B4008312031320103208B3001A2020140800FE
:1000C400831203132E08013A031D6B288030AE00FF
:1000D40082282E08023A031D7228C030AE008228FE
:1000E4002E08033A031D79289430AE0082282E0886
:1000F400043A031D8028D430AE0082288030AE003C
:100104002F03F0002E08F0077008AE007008B3004B
:100114001A202010B1013108300784000008003A89
:1001240003199C283108300784000008B2005A20C3
:08013400B10A8D282014080017
:10013C0083160313861206120610861006118611FA
:10014C0083128612061286110611861006100A20DA
:10015C000A200A20861406148616172086120A20F6
:10016C008616172086120A208616172086120A2059
:10017C0006108616172086120A208616172086125D
:10018C00861086158616172086120A2086110614EC
:10019C0086161720861206108616172086120A203D
:1001AC0086161720861206148616172086120A2029
:1001BC000610861617208612861506158614061448
:0C01CC008616172086120A202014080056
:1001D80083160313880183120814881408158815D8
:1001E80008169E200130B3001A200C30B3001A20E4
:1001F8000130AE000130AF004630A1006130A200EE
:100208006C30A3006C30A4002030A5003230A6006A
:100218003030A7003230A8003030A900AA012130C0
:10022800B00062200230AE000130AF004B30A100B8
:100238006130A2007230A3006530A4006530A500CB
:100248006D30A6002030A7003830A8003930A9004A
:100258003130AA003630AB003930AC00AD01213066
:10026800B00062201530FB004B30FC00BE30FD00B2
:10027800FD0B3C29FC0B3C29FB0B3C2900004329C6
:02400E004A2F37
:00000001FF
