:020000003A289C
:100006000030831203132306031D0B28003022063B
:10001600031D10280130F400F50100302306031DEE
:10002600162801302206031D1B280830F400F501AE
:1000360000302306031D212802302206031D262830
:100046000630F400F50100302306031D2C2803308A
:100056002206031D31283030F400F5017408F20041
:0E0066007508F3007208F0007308F10008003E
:100074008316031385018312850183168801831275
:10008400880120308500A001A1012008A2002108D8
:10009400A3000320700888001530FB004B30FC00DF
:1000A400BE30FD00FD0B5428FC0B5428FB0B5428D8
:1000B400000000302106031D6128033020060319C7
:1000C4006728A00A0319A10A472810308500A00157
:1000D400A1012008A2002108A300032070088800C1
:1000E4001530FB004B30FC00BE30FD00FD0B7828C2
:1000F400FC0B7828FB0B7828000000302106031D38
:1001040085280330200603198B28A00A0319A10AA5
:060114006B2843288C2833
:02400E004A2F37
:00000001FF
