:020000003328A3
:1000060083160313981809280000032883123F0853
:040016009900080045
:10001A008316031398169030831298008316871755
:10002A00071383128C1E1C281A08F00016280800D1
:10003A0083120313BD013C0884000008BE003E0879
:10004A00003A031932283E08BF000320BD0A3D08C2
:0C005A003C0784000008BE0024280800B9
:10006600193083160313990018150D200230FB0072
:100076000430FC00BA30FD00FD0B3F28FC0B3F2886
:10008600FB0B3F2800005130A0005C30A10001307E
:10009600A2000030A3005130BF0003204130A4006D
:1000A6006230A5006430A6007530A7006C30A80049
:1000B6002030A9004B30AA006130AB007230AC0092
:1000C6006530AD006530AE006D30AF00B001243054
:1000D600BC001D204930A4002030A5006C30A600CD
:1000E6006F30A7007630A8006530A9002030AA003E
:1000F6006D30AB006930AC006330AD007230AE00DD
:100106006F30AF006330B0006F30B1006E30B200B8
:100116007430B3007230B4006F30B5006C30B60086
:100126006C30B7006530B8007230B9007330BA0071
:0C013600BB012430BC001D205128A02873
:02400E004A2F37
:00000001FF
